{
    "contractName": "OracleListner",
    "abi": [
        {
            "inputs": [],
            "stateMutability": "nonpayable",
            "type": "constructor"
        },
        {
            "anonymous": false,
            "inputs": [
                {
                    "indexed": true,
                    "internalType": "address",
                    "name": "owner",
                    "type": "address"
                },
                {
                    "indexed": true,
                    "internalType": "address",
                    "name": "spender",
                    "type": "address"
                },
                {
                    "indexed": false,
                    "internalType": "uint256",
                    "name": "value",
                    "type": "uint256"
                }
            ],
            "name": "Approval",
            "type": "event"
        },
        {
            "anonymous": false,
            "inputs": [
                {
                    "indexed": false,
                    "internalType": "uint8",
                    "name": "sportId",
                    "type": "uint8"
                },
                {
                    "indexed": false,
                    "internalType": "string",
                    "name": "bestslug",
                    "type": "string"
                }
            ],
            "name": "BetResolved",
            "type": "event"
        },
        {
            "anonymous": false,
            "inputs": [
                {
                    "indexed": true,
                    "internalType": "address",
                    "name": "previousOwner",
                    "type": "address"
                },
                {
                    "indexed": true,
                    "internalType": "address",
                    "name": "newOwner",
                    "type": "address"
                }
            ],
            "name": "OwnershipTransferred",
            "type": "event"
        },
        {
            "anonymous": false,
            "inputs": [
                {
                    "indexed": true,
                    "internalType": "address",
                    "name": "from",
                    "type": "address"
                },
                {
                    "indexed": true,
                    "internalType": "address",
                    "name": "to",
                    "type": "address"
                },
                {
                    "indexed": false,
                    "internalType": "uint256",
                    "name": "value",
                    "type": "uint256"
                }
            ],
            "name": "Transfer",
            "type": "event"
        },
        {
            "inputs": [
                {
                    "internalType": "uint256",
                    "name": "",
                    "type": "uint256"
                }
            ],
            "name": "activeBets",
            "outputs": [
                {
                    "internalType": "uint8",
                    "name": "sportId",
                    "type": "uint8"
                },
                {
                    "internalType": "string",
                    "name": "betSlug",
                    "type": "string"
                },
                {
                    "internalType": "address",
                    "name": "bettingToken",
                    "type": "address"
                },
                {
                    "internalType": "uint256",
                    "name": "betAmount",
                    "type": "uint256"
                }
            ],
            "stateMutability": "view",
            "type": "function"
        },
        {
            "inputs": [
                {
                    "internalType": "uint8",
                    "name": "_sportId",
                    "type": "uint8"
                },
                {
                    "internalType": "string",
                    "name": "_betSlug",
                    "type": "string"
                },
                {
                    "internalType": "address",
                    "name": "_bettingToken",
                    "type": "address"
                },
                {
                    "internalType": "uint256",
                    "name": "_betAmount",
                    "type": "uint256"
                }
            ],
            "name": "addBet",
            "outputs": [],
            "stateMutability": "nonpayable",
            "type": "function"
        },
        {
            "inputs": [
                {
                    "internalType": "address",
                    "name": "owner",
                    "type": "address"
                },
                {
                    "internalType": "address",
                    "name": "spender",
                    "type": "address"
                }
            ],
            "name": "allowance",
            "outputs": [
                {
                    "internalType": "uint256",
                    "name": "",
                    "type": "uint256"
                }
            ],
            "stateMutability": "view",
            "type": "function"
        },
        {
            "inputs": [
                {
                    "internalType": "address",
                    "name": "spender",
                    "type": "address"
                },
                {
                    "internalType": "uint256",
                    "name": "amount",
                    "type": "uint256"
                }
            ],
            "name": "approve",
            "outputs": [
                {
                    "internalType": "bool",
                    "name": "",
                    "type": "bool"
                }
            ],
            "stateMutability": "nonpayable",
            "type": "function"
        },
        {
            "inputs": [
                {
                    "internalType": "address",
                    "name": "account",
                    "type": "address"
                }
            ],
            "name": "balanceOf",
            "outputs": [
                {
                    "internalType": "uint256",
                    "name": "",
                    "type": "uint256"
                }
            ],
            "stateMutability": "view",
            "type": "function"
        },
        {
            "inputs": [],
            "name": "decimals",
            "outputs": [
                {
                    "internalType": "uint8",
                    "name": "",
                    "type": "uint8"
                }
            ],
            "stateMutability": "view",
            "type": "function"
        },
        {
            "inputs": [
                {
                    "internalType": "address",
                    "name": "spender",
                    "type": "address"
                },
                {
                    "internalType": "uint256",
                    "name": "subtractedValue",
                    "type": "uint256"
                }
            ],
            "name": "decreaseAllowance",
            "outputs": [
                {
                    "internalType": "bool",
                    "name": "",
                    "type": "bool"
                }
            ],
            "stateMutability": "nonpayable",
            "type": "function"
        },
        {
            "inputs": [
                {
                    "internalType": "address",
                    "name": "spender",
                    "type": "address"
                },
                {
                    "internalType": "uint256",
                    "name": "addedValue",
                    "type": "uint256"
                }
            ],
            "name": "increaseAllowance",
            "outputs": [
                {
                    "internalType": "bool",
                    "name": "",
                    "type": "bool"
                }
            ],
            "stateMutability": "nonpayable",
            "type": "function"
        },
        {
            "inputs": [
                {
                    "internalType": "uint256",
                    "name": "_amount",
                    "type": "uint256"
                }
            ],
            "name": "mintYourTokens",
            "outputs": [],
            "stateMutability": "nonpayable",
            "type": "function"
        },
        {
            "inputs": [],
            "name": "name",
            "outputs": [
                {
                    "internalType": "string",
                    "name": "",
                    "type": "string"
                }
            ],
            "stateMutability": "view",
            "type": "function"
        },
        {
            "inputs": [],
            "name": "owner",
            "outputs": [
                {
                    "internalType": "address",
                    "name": "",
                    "type": "address"
                }
            ],
            "stateMutability": "view",
            "type": "function"
        },
        {
            "inputs": [],
            "name": "renounceOwnership",
            "outputs": [],
            "stateMutability": "nonpayable",
            "type": "function"
        },
        {
            "inputs": [
                {
                    "internalType": "uint8",
                    "name": "_sportId",
                    "type": "uint8"
                },
                {
                    "internalType": "string",
                    "name": "_slug",
                    "type": "string"
                }
            ],
            "name": "resolveBets",
            "outputs": [],
            "stateMutability": "nonpayable",
            "type": "function"
        },
        {
            "inputs": [],
            "name": "symbol",
            "outputs": [
                {
                    "internalType": "string",
                    "name": "",
                    "type": "string"
                }
            ],
            "stateMutability": "view",
            "type": "function"
        },
        {
            "inputs": [],
            "name": "totalSupply",
            "outputs": [
                {
                    "internalType": "uint256",
                    "name": "",
                    "type": "uint256"
                }
            ],
            "stateMutability": "view",
            "type": "function"
        },
        {
            "inputs": [
                {
                    "internalType": "address",
                    "name": "to",
                    "type": "address"
                },
                {
                    "internalType": "uint256",
                    "name": "amount",
                    "type": "uint256"
                }
            ],
            "name": "transfer",
            "outputs": [
                {
                    "internalType": "bool",
                    "name": "",
                    "type": "bool"
                }
            ],
            "stateMutability": "nonpayable",
            "type": "function"
        },
        {
            "inputs": [
                {
                    "internalType": "address",
                    "name": "from",
                    "type": "address"
                },
                {
                    "internalType": "address",
                    "name": "to",
                    "type": "address"
                },
                {
                    "internalType": "uint256",
                    "name": "amount",
                    "type": "uint256"
                }
            ],
            "name": "transferFrom",
            "outputs": [
                {
                    "internalType": "bool",
                    "name": "",
                    "type": "bool"
                }
            ],
            "stateMutability": "nonpayable",
            "type": "function"
        },
        {
            "inputs": [
                {
                    "internalType": "address",
                    "name": "newOwner",
                    "type": "address"
                }
            ],
            "name": "transferOwnership",
            "outputs": [],
            "stateMutability": "nonpayable",
            "type": "function"
        }
    ],
    "bytecode": "60806040523480156200001157600080fd5b506040518060400160405280600b81526020016a2932bbb0b9322a37b5b2b760a91b81525060405180604001604052806002815260200161149560f21b815250816003908162000062919062000293565b50600462000071828262000293565b5050506200008e62000088620000ac60201b60201c565b620000b0565b620000a6336b204fce5e3e2502611000000062000102565b62000387565b3390565b600580546001600160a01b038381166001600160a01b0319831681179093556040519116919082907f8be0079c531659141344cd1fd0a4f28419497f9722a3daafe3b4186f6b6457e090600090a35050565b6001600160a01b0382166200015d5760405162461bcd60e51b815260206004820152601f60248201527f45524332303a206d696e7420746f20746865207a65726f206164647265737300604482015260640160405180910390fd5b80600260008282546200017191906200035f565b90915550506001600160a01b03821660009081526020819052604081208054839290620001a09084906200035f565b90915550506040518181526001600160a01b038316906000907fddf252ad1be2c89b69c2b068fc378daa952ba7f163c4a11628f55a4df523b3ef9060200160405180910390a35050565b505050565b634e487b7160e01b600052604160045260246000fd5b600181811c908216806200021a57607f821691505b6020821081036200023b57634e487b7160e01b600052602260045260246000fd5b50919050565b601f821115620001ea57600081815260208120601f850160051c810160208610156200026a5750805b601f850160051c820191505b818110156200028b5782815560010162000276565b505050505050565b81516001600160401b03811115620002af57620002af620001ef565b620002c781620002c0845462000205565b8462000241565b602080601f831160018114620002ff5760008415620002e65750858301515b600019600386901b1c1916600185901b1785556200028b565b600085815260208120601f198616915b8281101562000330578886015182559484019460019091019084016200030f565b50858210156200034f5787850151600019600388901b60f8161c191681555b5050505050600190811b01905550565b808201808211156200038157634e487b7160e01b600052601160045260246000fd5b92915050565b61125980620003976000396000f3fe608060405234801561001057600080fd5b50600436106101165760003560e01c8063715018a6116100a2578063a9059cbb11610071578063a9059cbb14610232578063af768ee314610245578063bdffc83014610268578063dd62ed3e1461027b578063f2fde38b1461028e57600080fd5b8063715018a6146101f45780638da5cb5b146101fc57806395d89b4114610217578063a457c2d71461021f57600080fd5b806323b872dd116100e957806323b872dd14610183578063313ce56714610196578063364e232e146101a557806339509351146101b857806370a08231146101cb57600080fd5b806306fdde031461011b578063095ea7b3146101395780631593509a1461015c57806318160ddd14610171575b600080fd5b6101236102a1565b6040516101309190610d9a565b60405180910390f35b61014c610147366004610dd0565b610333565b6040519015158152602001610130565b61016f61016a366004610eae565b61034d565b005b6002545b604051908152602001610130565b61014c610191366004610efc565b6104f6565b60405160128152602001610130565b61016f6101b3366004610f38565b61051a565b61014c6101c6366004610dd0565b610600565b6101756101d9366004610f9e565b6001600160a01b031660009081526020819052604090205490565b61016f610622565b6005546040516001600160a01b039091168152602001610130565b610123610636565b61014c61022d366004610dd0565b610645565b61014c610240366004610dd0565b6106c5565b610258610253366004610fb9565b6106d3565b6040516101309493929190610fd2565b61016f610276366004610fb9565b6107a5565b61017561028936600461100a565b6107b2565b61016f61029c366004610f9e565b6107dd565b6060600380546102b09061103d565b80601f01602080910402602001604051908101604052809291908181526020018280546102dc9061103d565b80156103295780601f106102fe57610100808354040283529160200191610329565b820191906000526020600020905b81548152906001019060200180831161030c57829003601f168201915b5050505050905090565b600033610341818585610853565b60019150505b92915050565b610355610977565b60005b60065460ff821610156104f157600060068260ff168154811061037d5761037d611077565b906000526020600020906004020160010180546103999061103d565b80601f01602080910402602001604051908101604052809291908181526020018280546103c59061103d565b80156104125780601f106103e757610100808354040283529160200191610412565b820191906000526020600020905b8154815290600101906020018083116103f557829003601f168201915b505050505090508360ff1660068360ff168154811061043357610433611077565b600091825260209091206004909102015460ff1614801561049f575082604051602001610460919061108d565b6040516020818303038152906040528051906020012081604051602001610487919061108d565b60405160208183030381529060405280519060200120145b156104de577f5be170c4f536694195e472d551f2bc3799d18caaf86c136f96ed53eb5826c4f384846040516104d59291906110a9565b60405180910390a15b50806104e9816110e3565b915050610358565b505050565b6000336105048582856109d1565b61050f858585610a4b565b506001949350505050565b6040805160808101825260ff8681168252602082018681526001600160a01b03861693830193909352606082018490526006805460018101825560009190915282517ff652222313e28459528d920b65115c16c04f3efc82aaedc97be59f3f377c0d3f6004909202918201805460ff1916919093161782559251919290917ff652222313e28459528d920b65115c16c04f3efc82aaedc97be59f3f377c0d40909101906105c79082611150565b5060408201516002820180546001600160a01b0319166001600160a01b0390921691909117905560609091015160039091015550505050565b60003361034181858561061383836107b2565b61061d9190611210565b610853565b61062a610977565b6106346000610c19565b565b6060600480546102b09061103d565b6000338161065382866107b2565b9050838110156106b85760405162461bcd60e51b815260206004820152602560248201527f45524332303a2064656372656173656420616c6c6f77616e63652062656c6f77604482015264207a65726f60d81b60648201526084015b60405180910390fd5b61050f8286868403610853565b600033610341818585610a4b565b600681815481106106e357600080fd5b60009182526020909120600490910201805460018201805460ff90921693509061070c9061103d565b80601f01602080910402602001604051908101604052809291908181526020018280546107389061103d565b80156107855780601f1061075a57610100808354040283529160200191610785565b820191906000526020600020905b81548152906001019060200180831161076857829003601f168201915b50505050600283015460039093015491926001600160a01b031691905084565b6107af3382610c6b565b50565b6001600160a01b03918216600090815260016020908152604080832093909416825291909152205490565b6107e5610977565b6001600160a01b03811661084a5760405162461bcd60e51b815260206004820152602660248201527f4f776e61626c653a206e6577206f776e657220697320746865207a65726f206160448201526564647265737360d01b60648201526084016106af565b6107af81610c19565b6001600160a01b0383166108b55760405162461bcd60e51b8152602060048201526024808201527f45524332303a20617070726f76652066726f6d20746865207a65726f206164646044820152637265737360e01b60648201526084016106af565b6001600160a01b0382166109165760405162461bcd60e51b815260206004820152602260248201527f45524332303a20617070726f766520746f20746865207a65726f206164647265604482015261737360f01b60648201526084016106af565b6001600160a01b0383811660008181526001602090815260408083209487168084529482529182902085905590518481527f8c5be1e5ebec7d5bd14f71427d1e84f3dd0314c0f7b2291e5b200ac8c7c3b925910160405180910390a3505050565b6005546001600160a01b031633146106345760405162461bcd60e51b815260206004820181905260248201527f4f776e61626c653a2063616c6c6572206973206e6f7420746865206f776e657260448201526064016106af565b60006109dd84846107b2565b90506000198114610a455781811015610a385760405162461bcd60e51b815260206004820152601d60248201527f45524332303a20696e73756666696369656e7420616c6c6f77616e636500000060448201526064016106af565b610a458484848403610853565b50505050565b6001600160a01b038316610aaf5760405162461bcd60e51b815260206004820152602560248201527f45524332303a207472616e736665722066726f6d20746865207a65726f206164604482015264647265737360d81b60648201526084016106af565b6001600160a01b038216610b115760405162461bcd60e51b815260206004820152602360248201527f45524332303a207472616e7366657220746f20746865207a65726f206164647260448201526265737360e81b60648201526084016106af565b6001600160a01b03831660009081526020819052604090205481811015610b895760405162461bcd60e51b815260206004820152602660248201527f45524332303a207472616e7366657220616d6f756e7420657863656564732062604482015265616c616e636560d01b60648201526084016106af565b6001600160a01b03808516600090815260208190526040808220858503905591851681529081208054849290610bc0908490611210565b92505081905550826001600160a01b0316846001600160a01b03167fddf252ad1be2c89b69c2b068fc378daa952ba7f163c4a11628f55a4df523b3ef84604051610c0c91815260200190565b60405180910390a3610a45565b600580546001600160a01b038381166001600160a01b0319831681179093556040519116919082907f8be0079c531659141344cd1fd0a4f28419497f9722a3daafe3b4186f6b6457e090600090a35050565b6001600160a01b038216610cc15760405162461bcd60e51b815260206004820152601f60248201527f45524332303a206d696e7420746f20746865207a65726f20616464726573730060448201526064016106af565b8060026000828254610cd39190611210565b90915550506001600160a01b03821660009081526020819052604081208054839290610d00908490611210565b90915550506040518181526001600160a01b038316906000907fddf252ad1be2c89b69c2b068fc378daa952ba7f163c4a11628f55a4df523b3ef9060200160405180910390a35050565b60005b83811015610d65578181015183820152602001610d4d565b50506000910152565b60008151808452610d86816020860160208601610d4a565b601f01601f19169290920160200192915050565b602081526000610dad6020830184610d6e565b9392505050565b80356001600160a01b0381168114610dcb57600080fd5b919050565b60008060408385031215610de357600080fd5b610dec83610db4565b946020939093013593505050565b803560ff81168114610dcb57600080fd5b634e487b7160e01b600052604160045260246000fd5b600082601f830112610e3257600080fd5b813567ffffffffffffffff80821115610e4d57610e4d610e0b565b604051601f8301601f19908116603f01168101908282118183101715610e7557610e75610e0b565b81604052838152866020858801011115610e8e57600080fd5b836020870160208301376000602085830101528094505050505092915050565b60008060408385031215610ec157600080fd5b610eca83610dfa565b9150602083013567ffffffffffffffff811115610ee657600080fd5b610ef285828601610e21565b9150509250929050565b600080600060608486031215610f1157600080fd5b610f1a84610db4565b9250610f2860208501610db4565b9150604084013590509250925092565b60008060008060808587031215610f4e57600080fd5b610f5785610dfa565b9350602085013567ffffffffffffffff811115610f7357600080fd5b610f7f87828801610e21565b935050610f8e60408601610db4565b9396929550929360600135925050565b600060208284031215610fb057600080fd5b610dad82610db4565b600060208284031215610fcb57600080fd5b5035919050565b60ff85168152608060208201526000610fee6080830186610d6e565b6001600160a01b03949094166040830152506060015292915050565b6000806040838503121561101d57600080fd5b61102683610db4565b915061103460208401610db4565b90509250929050565b600181811c9082168061105157607f821691505b60208210810361107157634e487b7160e01b600052602260045260246000fd5b50919050565b634e487b7160e01b600052603260045260246000fd5b6000825161109f818460208701610d4a565b9190910192915050565b60ff831681526040602082015260006110c56040830184610d6e565b949350505050565b634e487b7160e01b600052601160045260246000fd5b600060ff821660ff81036110f9576110f96110cd565b60010192915050565b601f8211156104f157600081815260208120601f850160051c810160208610156111295750805b601f850160051c820191505b8181101561114857828155600101611135565b505050505050565b815167ffffffffffffffff81111561116a5761116a610e0b565b61117e81611178845461103d565b84611102565b602080601f8311600181146111b3576000841561119b5750858301515b600019600386901b1c1916600185901b178555611148565b600085815260208120601f198616915b828110156111e2578886015182559484019460019091019084016111c3565b50858210156112005787850151600019600388901b60f8161c191681555b5050505050600190811b01905550565b80820180821115610347576103476110cd56fea26469706673582212202658595f9597125522caa7e92db8a9f7aede2db62265febd1f5aebf16a44bb0a64736f6c63430008100033",
    "sourcePath": "/home/saif/BettinContract/BettingTests/contracts/Bettin.sol",
    "compiler": {
        "name": "solc",
        "version": "0.8.16+commit.07a7930e"
    },
    "functionHashes": {
        "activeBets(uint256)": "af768ee3",
        "addBet(uint8,string,address,uint256)": "364e232e",
        "allowance(address,address)": "dd62ed3e",
        "approve(address,uint256)": "095ea7b3",
        "balanceOf(address)": "70a08231",
        "decimals()": "313ce567",
        "decreaseAllowance(address,uint256)": "a457c2d7",
        "increaseAllowance(address,uint256)": "39509351",
        "mintYourTokens(uint256)": "bdffc830",
        "name()": "06fdde03",
        "owner()": "8da5cb5b",
        "renounceOwnership()": "715018a6",
        "resolveBets(uint8,string)": "1593509a",
        "symbol()": "95d89b41",
        "totalSupply()": "18160ddd",
        "transfer(address,uint256)": "a9059cbb",
        "transferFrom(address,address,uint256)": "23b872dd",
        "transferOwnership(address)": "f2fde38b"
    },
    "gasEstimates": {
        "creation": {
            "codeDepositCost": "939400",
            "executionCost": "infinite",
            "totalCost": "infinite"
        },
        "external": {
            "activeBets(uint256)": "infinite",
            "addBet(uint8,string,address,uint256)": "infinite",
            "allowance(address,address)": "infinite",
            "approve(address,uint256)": "24651",
            "balanceOf(address)": "2651",
            "decimals()": "222",
            "decreaseAllowance(address,uint256)": "27039",
            "increaseAllowance(address,uint256)": "infinite",
            "mintYourTokens(uint256)": "infinite",
            "name()": "infinite",
            "owner()": "2346",
            "renounceOwnership()": "infinite",
            "resolveBets(uint8,string)": "infinite",
            "symbol()": "infinite",
            "totalSupply()": "2371",
            "transfer(address,uint256)": "infinite",
            "transferFrom(address,address,uint256)": "infinite",
            "transferOwnership(address)": "28446"
        }
    }
}